{"abi":[{"type":"constructor","inputs":[{"name":"_borrower","type":"address","internalType":"address"},{"name":"_token","type":"address","internalType":"address"},{"name":"_businessRegistry","type":"address","internalType":"address"},{"name":"_metadataURI","type":"string","internalType":"string"},{"name":"_loanAmount","type":"uint256","internalType":"uint256"},{"name":"_fundingDeadline","type":"uint256","internalType":"uint256"},{"name":"_repaymentDuration","type":"uint256","internalType":"uint256"},{"name":"_gracePeriod","type":"uint256","internalType":"uint256"}],"stateMutability":"nonpayable"},{"type":"function","name":"METADATA_UPDATE_COOLDOWN","inputs":[],"outputs":[{"name":"","type":"uint256","internalType":"uint256"}],"stateMutability":"view"},{"type":"function","name":"borrower","inputs":[],"outputs":[{"name":"","type":"address","internalType":"address"}],"stateMutability":"view"},{"type":"function","name":"businessRegistry","inputs":[],"outputs":[{"name":"","type":"address","internalType":"contract BusinessRegistry"}],"stateMutability":"view"},{"type":"function","name":"contribute","inputs":[{"name":"amount","type":"uint256","internalType":"uint256"}],"outputs":[],"stateMutability":"nonpayable"},{"type":"function","name":"contributeWithPermit","inputs":[{"name":"amount","type":"uint256","internalType":"uint256"},{"name":"deadline","type":"uint256","internalType":"uint256"},{"name":"v","type":"uint8","internalType":"uint8"},{"name":"r","type":"bytes32","internalType":"bytes32"},{"name":"s","type":"bytes32","internalType":"bytes32"}],"outputs":[],"stateMutability":"nonpayable"},{"type":"function","name":"contributions","inputs":[{"name":"","type":"address","internalType":"address"}],"outputs":[{"name":"","type":"uint256","internalType":"uint256"}],"stateMutability":"view"},{"type":"function","name":"contributors","inputs":[{"name":"","type":"uint256","internalType":"uint256"}],"outputs":[{"name":"","type":"address","internalType":"address"}],"stateMutability":"view"},{"type":"function","name":"disburseLoan","inputs":[],"outputs":[],"stateMutability":"nonpayable"},{"type":"function","name":"fundingActive","inputs":[],"outputs":[{"name":"","type":"bool","internalType":"bool"}],"stateMutability":"view"},{"type":"function","name":"fundingDeadline","inputs":[],"outputs":[{"name":"","type":"uint256","internalType":"uint256"}],"stateMutability":"view"},{"type":"function","name":"getAvailableReturns","inputs":[{"name":"contributor","type":"address","internalType":"address"}],"outputs":[{"name":"","type":"uint256","internalType":"uint256"}],"stateMutability":"view"},{"type":"function","name":"getContributorCount","inputs":[],"outputs":[{"name":"","type":"uint256","internalType":"uint256"}],"stateMutability":"view"},{"type":"function","name":"getContributors","inputs":[],"outputs":[{"name":"","type":"address[]","internalType":"address[]"}],"stateMutability":"view"},{"type":"function","name":"getOutstandingAmount","inputs":[],"outputs":[{"name":"","type":"uint256","internalType":"uint256"}],"stateMutability":"view"},{"type":"function","name":"getRemainingFundingTime","inputs":[],"outputs":[{"name":"","type":"uint256","internalType":"uint256"}],"stateMutability":"view"},{"type":"function","name":"getRepaymentDeadline","inputs":[],"outputs":[{"name":"","type":"uint256","internalType":"uint256"}],"stateMutability":"view"},{"type":"function","name":"gracePeriod","inputs":[],"outputs":[{"name":"","type":"uint256","internalType":"uint256"}],"stateMutability":"view"},{"type":"function","name":"lastMetadataUpdate","inputs":[],"outputs":[{"name":"","type":"uint256","internalType":"uint256"}],"stateMutability":"view"},{"type":"function","name":"loanAmount","inputs":[],"outputs":[{"name":"","type":"uint256","internalType":"uint256"}],"stateMutability":"view"},{"type":"function","name":"loanDisbursed","inputs":[],"outputs":[{"name":"","type":"bool","internalType":"bool"}],"stateMutability":"view"},{"type":"function","name":"loanDisbursedAt","inputs":[],"outputs":[{"name":"","type":"uint256","internalType":"uint256"}],"stateMutability":"view"},{"type":"function","name":"loanFullyRepaid","inputs":[],"outputs":[{"name":"","type":"bool","internalType":"bool"}],"stateMutability":"view"},{"type":"function","name":"makeRepayment","inputs":[{"name":"amount","type":"uint256","internalType":"uint256"}],"outputs":[],"stateMutability":"nonpayable"},{"type":"function","name":"metadataURI","inputs":[],"outputs":[{"name":"","type":"string","internalType":"string"}],"stateMutability":"view"},{"type":"function","name":"refund","inputs":[],"outputs":[],"stateMutability":"nonpayable"},{"type":"function","name":"repaymentDuration","inputs":[],"outputs":[{"name":"","type":"uint256","internalType":"uint256"}],"stateMutability":"view"},{"type":"function","name":"token","inputs":[],"outputs":[{"name":"","type":"address","internalType":"contract IERC20"}],"stateMutability":"view"},{"type":"function","name":"totalFunded","inputs":[],"outputs":[{"name":"","type":"uint256","internalType":"uint256"}],"stateMutability":"view"},{"type":"function","name":"totalRepaid","inputs":[],"outputs":[{"name":"","type":"uint256","internalType":"uint256"}],"stateMutability":"view"},{"type":"function","name":"updateMetadata","inputs":[{"name":"newURI","type":"string","internalType":"string"}],"outputs":[],"stateMutability":"nonpayable"},{"type":"function","name":"withdrawAvailableReturns","inputs":[],"outputs":[],"stateMutability":"nonpayable"},{"type":"function","name":"withdrawnAmounts","inputs":[{"name":"","type":"address","internalType":"address"}],"outputs":[{"name":"","type":"uint256","internalType":"uint256"}],"stateMutability":"view"},{"type":"event","name":"CampaignRefunded","inputs":[{"name":"contributor","type":"address","indexed":true,"internalType":"address"},{"name":"amount","type":"uint256","indexed":false,"internalType":"uint256"}],"anonymous":false},{"type":"event","name":"Contributed","inputs":[{"name":"contributor","type":"address","indexed":true,"internalType":"address"},{"name":"amount","type":"uint256","indexed":false,"internalType":"uint256"}],"anonymous":false},{"type":"event","name":"FundingGoalReached","inputs":[{"name":"totalAmount","type":"uint256","indexed":false,"internalType":"uint256"}],"anonymous":false},{"type":"event","name":"LoanDisbursed","inputs":[{"name":"amount","type":"uint256","indexed":false,"internalType":"uint256"}],"anonymous":false},{"type":"event","name":"LoanRepaid","inputs":[{"name":"totalAmount","type":"uint256","indexed":false,"internalType":"uint256"}],"anonymous":false},{"type":"event","name":"MetadataUpdated","inputs":[{"name":"newURI","type":"string","indexed":false,"internalType":"string"}],"anonymous":false},{"type":"event","name":"RepaymentMade","inputs":[{"name":"amount","type":"uint256","indexed":false,"internalType":"uint256"},{"name":"totalRepaid","type":"uint256","indexed":false,"internalType":"uint256"}],"anonymous":false},{"type":"event","name":"ReturnsWithdrawn","inputs":[{"name":"contributor","type":"address","indexed":true,"internalType":"address"},{"name":"amount","type":"uint256","indexed":false,"internalType":"uint256"}],"anonymous":false},{"type":"error","name":"CampaignHasEnded","inputs":[]},{"type":"error","name":"CampaignNotActive","inputs":[]},{"type":"error","name":"EmptyMetadataURI","inputs":[]},{"type":"error","name":"FundingGoalExceeded","inputs":[]},{"type":"error","name":"InsufficientFunding","inputs":[]},{"type":"error","name":"InvalidAmount","inputs":[]},{"type":"error","name":"LoanFullyRepaid","inputs":[]},{"type":"error","name":"MetadataUpdateRestricted","inputs":[]},{"type":"error","name":"NotOwner","inputs":[]},{"type":"error","name":"PermitDeadlineExpired","inputs":[]},{"type":"error","name":"ReentrancyGuardReentrantCall","inputs":[]},{"type":"error","name":"RepaymentExceedsOutstanding","inputs":[]},{"type":"error","name":"RepaymentTooEarly","inputs":[]},{"type":"error","name":"SafeERC20FailedOperation","inputs":[{"name":"token","type":"address","internalType":"address"}]},{"type":"error","name":"TransferFailed","inputs":[]},{"type":"error","name":"UpdateCooldownActive","inputs":[]}],"bytecode":{"object":"0x61016060405234620003695762001b6e803803806200001e816200036d565b92833981019061010091828282031262000369576200003d8262000393565b60206200004c81850162000393565b916200005b6040860162000393565b606086015190946001600160401b03918281116200036957870190601f90808284011215620003695782518481116200034057601f1993620000a3828501861689016200036d565b92828452888383010111620003695787905f5b838110620003545750505f918301015260808901519560a08a01519760e060c08c01519b015199600197885f558860ff19600454161760045560805260018060a01b0380921660a0521660c052815194851162000340578554938685811c9516801562000335575b8286101462000321578484879611620002c8575b5081938511600114620002645750505f9262000258575b50505f19600383901b1c191690821b1790555b60e0528352610120918252610140908152604051916117c59384620003a9853960805184818161020e01528181610a5a01528181610ce40152611125015260a0518481816101bc01528181610292015281816104cc015281816107a401528181610e3c01528181610f7401526111d7015260c05184611025015260e05184818161025e01528181610596015281816107760152818161099f01528181610de50152818161116b015281816116a3015281816116ca015261172601525183818161055b0152818161073c01528181610d2b01528181610dbb01526115e5015251828181610cac015261165c01525181818161096401526116350152f35b015190505f8062000149565b86959392919316855f52835f20935f905b828210620002ae575050841162000295575b505050811b0190556200015c565b01515f1960f88460031b161c191690555f808062000287565b848401518655889790950194938401939081019062000275565b909192939450865f52825f208580880160051c82019285891062000317575b9188978a9297969594930160051c01915b8281106200030857505062000132565b5f8155889750899101620002f8565b92508192620002e7565b634e487b7160e01b5f52602260045260245ffd5b94607f16946200011e565b634e487b7160e01b5f52604160045260245ffd5b818101830151858201840152899201620000b6565b5f80fd5b6040519190601f01601f191682016001600160401b038111838210176200034057604052565b51906001600160a01b0382168203620003695756fe6080604081815260049182361015610015575f80fd5b5f92833560e01c91826303ee438c1461123657508163188874bd1461111157816323ef70bc146110f4578163253da8bd146110d55781633152dd00146110b25781633c233a7d146110955781633cb5d100146110545781633dfc32f6146110105781633f211ef314610fd657816341473d2014610f0d57816342e94c9014610ed35781634cefb13114610eac578163590e1ae314610d9e5781635da624ef14610d6d578163673c241714610d4e578163796b23bb14610d135781637df1f1b914610ccf5781638e36239414610c94578163918b5be1146109e157816391cb7131146109c25781639d585f7f14610987578163a06db7dc1461094c578163a37687081461092f578163a72dad0514610910578163ad044f49146108f1578163af157c1914610829578163c05757da14610805578163c1cbbca714610713578163ce40a30814610494578163d37415fe146101eb57508063fc0c546a146101a85763fe5a30d714610182575f80fd5b346101a457816003193601126101a45760209061019d6115e3565b9051908152f35b5080fd5b50346101a457816003193601126101a457517f00000000000000000000000000000000000000000000000000000000000000006001600160a01b03168152602090f35b905034610490576020908160031936011261048c576001600160a01b03918135907f00000000000000000000000000000000000000000000000000000000000000008416330361047c5761023d611534565b6007549460ff86161561046d5760ff600896871c1661045e57821561044f577f00000000000000000000000000000000000000000000000000000000000000009061028a600654836115a5565b8411610440577f0000000000000000000000000000000000000000000000000000000000000000936102be81303388611474565b7fd3337f372235c0c137836a45251cd21fba324e7ef27c7acc5ac12451491793b9826102ec83600654611411565b928360065581519081528387820152a182811461030c575b886001815580f35b837f9a7851747cd7ffb3fe0a32caf3da48b31f27cebe131267051640f8b72fc471869161010061ff009b999a9b1960075416176007558351908152a18051906370a0823160e01b8252308683015260249884838b818c8a165afa928315610436578893610403575b50875b600a548110156103eb57886103b0866103ab87878f610395886113c8565b90549060031b1c1695868152888d5220546115b2565b6115c5565b806103da575b50505f1981146103c857600101610377565b634e487b7160e01b8952601188528a89fd5b6103e49189611555565b5f806103b6565b50505050505050509150505f80808080808080610304565b9092508481813d831161042f575b61041b818361134b565b8101031261042b5751915f610374565b8780fd5b503d610411565b82513d8a823e3d90fd5b51639c598d3b60e01b81528490fd5b5163162908e360e11b81528390fd5b516392ce535360e01b81528390fd5b5163219a945b60e11b81528390fd5b84516330cd747160e01b81528390fd5b8380fd5b8280fd5b9050346104905760a03660031901126104905780356024356044359060ff821680920361070f576104c3611534565b4281106106ff577f0000000000000000000000000000000000000000000000000000000000000000916001600160a01b03831691879190833b156104905760e490838951958694859363d505accf60e01b8552338c8601523060248601528a60448601526064850152608484015260643560a484015260843560c48401525af180156106f5576106c7575b5060ff835416156106b7577f00000000000000000000000000000000000000000000000000000000000000004210156106a75781156106975761059382600354611411565b907f000000000000000000000000000000000000000000000000000000000000000080921161068757826105ca9130903390611474565b33855260086020528385205415610679575b33855260086020528385206105f2838254611411565b905561060082600354611411565b918260035584519081527f62722348256371b5147820d6cad90c40fd2da1ccee18c3ed52c0bca5a61dbbab60203392a2811461063f575b836001815580f35b7fbdf8e8154212732e32053db049accdd4ff27639d7028ecf127e2353161b994bf9260209260ff19815416905551908152a15f8080610637565b61068233611432565b6105dc565b84516355c5c72d60e11b81528490fd5b835163162908e360e11b81528390fd5b83516310b63aa560e31b81528390fd5b835163219a945b60e11b81528390fd5b67ffffffffffffffff81969296116106e2578452935f61054e565b634e487b7160e01b825260418452602482fd5b85513d88823e3d90fd5b84516305787bdf60e01b81528490fd5b8580fd5b905034610490576020366003190112610490578035610730611534565b60ff825416156107f6577f00000000000000000000000000000000000000000000000000000000000000004210156107e75780156107d85761077481600354611411565b7f00000000000000000000000000000000000000000000000000000000000000008091116107c8576105ca8230337f0000000000000000000000000000000000000000000000000000000000000000611474565b83516355c5c72d60e11b81528390fd5b50905163162908e360e11b8152fd5b5090516310b63aa560e31b8152fd5b50905163219a945b60e11b8152fd5b5050346101a457816003193601126101a45760209060ff6007541690519015158152f35b8284346108ee57806003193601126108ee57908051918290600a549182855260208095018093600a84527fc65a7bb8d6351c1cf70c95a316cc6a92839c986682d98bc35f958f4883f9d2a890845b8181106108d1575050508161088d91038261134b565b83519485948186019282875251809352850193925b8281106108b157505050500390f35b83516001600160a01b0316855286955093810193928101926001016108a2565b82546001600160a01b031684529288019260019283019201610877565b80fd5b5050346101a457816003193601126101a4576020906003549051908152f35b5050346101a457816003193601126101a4576020906006549051908152f35b5050346101a457816003193601126101a45760209061019d61161f565b5050346101a457816003193601126101a457602090517f00000000000000000000000000000000000000000000000000000000000000008152f35b5050346101a457816003193601126101a457602090517f00000000000000000000000000000000000000000000000000000000000000008152f35b5050346101a457816003193601126101a4576020906002549051908152f35b839150346101a457602092836003193601126104905767ffffffffffffffff938235858111610c905736602382011215610c90578084013593868511610c4057835194601f1992610a39601f8301851686018861134b565b818752366024838301011161042b578188926024879301838a0137870101527f00000000000000000000000000000000000000000000000000000000000000006001600160a01b03163303610c8257845115610c7457600254610e108101809111610c61574210610c53578451968711610c405750600191610abb8354611313565b601f8111610bdc575b508091601f8811600114610b3757505090858596610b269594937f1c306e70c05992619e2128ad1ef88df75f36c9476282e59f51401b2abaa42e4e9791610b2c575b505f19600383901b1c191690821b1790555b426002555191829182611381565b0390a180f35b905084015188610b06565b87929192168387527fb10e2d527612073b26eecdfd717e6a320cf44b4afac2b0732d9fcbe2b7fa0cf69287905b828210610bc5575050968392610b2696959492827f1c306e70c05992619e2128ad1ef88df75f36c9476282e59f51401b2abaa42e4e999a10610bad575b5050811b019055610b18565b8601515f1960f88460031b161c191690558880610ba1565b808685968294968b01518155019501930190610b64565b8387527fb10e2d527612073b26eecdfd717e6a320cf44b4afac2b0732d9fcbe2b7fa0cf6601f890160051c810191838a10610c36575b601f0160051c019084905b828110610c2b575050610ac4565b888155018490610c1d565b9091508190610c12565b634e487b7160e01b865260419052602485fd5b83516305d7503b60e01b8152fd5b634e487b7160e01b875260118252602487fd5b835163128e0ec160e11b8152fd5b83516330cd747160e01b8152fd5b8480fd5b5050346101a457816003193601126101a457602090517f00000000000000000000000000000000000000000000000000000000000000008152f35b5050346101a457816003193601126101a457517f00000000000000000000000000000000000000000000000000000000000000006001600160a01b03168152602090f35b5050346101a457816003193601126101a457602090517f00000000000000000000000000000000000000000000000000000000000000008152f35b5050346101a457816003193601126101a4576020906005549051908152f35b9050346104905760203660031901126104905735916001600160a01b03831683036108ee575061019d6020926116ec565b91905034610490578260031936011261049057610db9611534565b7f00000000000000000000000000000000000000000000000000000000000000004210610e9f576003547f00000000000000000000000000000000000000000000000000000000000000001115610e9f5760ff60075416610e9f57338352600860205280832054918215610e91575033835260086020528281812055610e6082337f0000000000000000000000000000000000000000000000000000000000000000611555565b519081527f813795cf86527498dec1940f7ebd6f9f5374c15bf1c5931d05b389afdb149d1260203392a26001815580f35b905163162908e360e11b8152fd5b5163219a945b60e11b8152fd5b5050346101a457816003193601126101a45760209060ff60075460081c1690519015158152f35b90503461049057602036600319011261049057356001600160a01b0381169081900361049057828291602094526008845220549051908152f35b91905034610490578260031936011261049057610f28611534565b60ff6007541615610e9f5733835260086020528083205415610fc957610f4d336116ec565b918215610e9157503383526009602052808320610f6b838254611411565b9055610f9882337f0000000000000000000000000000000000000000000000000000000000000000611555565b519081527f0f9fa24c1d9febdaf99508f4923a7b5add9bd70eab45c8fc614509df7989493860203392a26001815580f35b5163162908e360e11b8152fd5b90503461049057602036600319011261049057356001600160a01b0381169081900361049057828291602094526009845220549051908152f35b5050346101a457816003193601126101a457517f00000000000000000000000000000000000000000000000000000000000000006001600160a01b03168152602090f35b905034610490576020366003190112610490573591600a548310156108ee575061107f6020926113c8565b905491519160018060a01b039160031b1c168152f35b5050346101a457816003193601126101a45760209051610e108152f35b8284346108ee57806003193601126108ee575060ff602092541690519015158152f35b5050346101a457816003193601126101a457602090600a549051908152f35b5050346101a457816003193601126101a45760209061019d611685565b9050346104905782600319360112610490577f00000000000000000000000000000000000000000000000000000000000000006001600160a01b03811633036112275761115c611534565b60ff8254166107f657600354917f00000000000000000000000000000000000000000000000000000000000000008310611219576007549060ff821661120b57506020927f8e793913bbdcc59a83addb3e361999185dbb41e26aba285443d1bae02bea82a9949260016111fb9360ff191617600755426005557f0000000000000000000000000000000000000000000000000000000000000000611555565b6003549051908152a16001815580f35b84516312171d8360e31b8152fd5b83516357e000b160e01b8152fd5b5090516330cd747160e01b8152fd5b8490843461049057826003193601126104905782600180549161125883611313565b808652928281169081156112eb575060011461128f575b5050506112818261128b94038361134b565b5191829182611381565b0390f35b94508085527fb10e2d527612073b26eecdfd717e6a320cf44b4afac2b0732d9fcbe2b7fa0cf65b8286106112d35750505061128182602061128b958201019461126f565b805460208787018101919091529095019481016112b6565b61128b97508693506020925061128194915060ff191682840152151560051b8201019461126f565b90600182811c92168015611341575b602083101461132d57565b634e487b7160e01b5f52602260045260245ffd5b91607f1691611322565b90601f8019910116810190811067ffffffffffffffff82111761136d57604052565b634e487b7160e01b5f52604160045260245ffd5b602080825282518183018190529093925f5b8281106113b457505060409293505f838284010152601f8019910116010190565b818101860151848201604001528501611393565b600a548110156113fd57600a5f527fc65a7bb8d6351c1cf70c95a316cc6a92839c986682d98bc35f958f4883f9d2a801905f90565b634e487b7160e01b5f52603260045260245ffd5b9190820180921161141e57565b634e487b7160e01b5f52601160045260245ffd5b600a546801000000000000000081101561136d578060016114569201600a556113c8565b819291549060031b9160018060a01b03809116831b921b1916179055565b6040516323b872dd60e01b60208201526001600160a01b03928316602482015292909116604483015260648083019390935291815260a081019181831067ffffffffffffffff84111761136d576114cd926040526114cf565b565b905f602091828151910182855af115611529575f513d61152057506001600160a01b0381163b155b6114fe5750565b604051635274afe760e01b81526001600160a01b039091166004820152602490fd5b600114156114f7565b6040513d5f823e3d90fd5b60025f54146115435760025f55565b604051633ee5aeb560e01b8152600490fd5b60405163a9059cbb60e01b60208201526001600160a01b039092166024830152604480830193909352918152608081019167ffffffffffffffff83118284101761136d576114cd926040526114cf565b9190820391821161141e57565b8181029291811591840414171561141e57565b81156115cf570490565b634e487b7160e01b5f52601260045260245ffd5b7f00000000000000000000000000000000000000000000000000000000000000008042101561161a576116179042906115a5565b90565b505f90565b60ff60075416156116815761161761165a6005547f000000000000000000000000000000000000000000000000000000000000000090611411565b7f000000000000000000000000000000000000000000000000000000000000000090611411565b5f90565b60075460ff8116156116c75760081c60ff16611681576116176006547f00000000000000000000000000000000000000000000000000000000000000006115a5565b507f000000000000000000000000000000000000000000000000000000000000000090565b60ff60075416158015611770575b61161a5760018060a01b03165f90808252600860205261174b6117246040842054600654906115b2565b7f0000000000000000000000000000000000000000000000000000000000000000906115c5565b90825260096020526040822054908181111561176b5761161792506115a5565b505090565b506001600160a01b0381165f90815260086020526040902054156116fa56fea2646970667358221220684c80c0ed2a0775311480c0207f2ea4cfa51d004707cf255d33bf2fbfc47ebe64736f6c63430008140033","linkReferences":{}},"methodIdentifiers":{"METADATA_UPDATE_COOLDOWN()":"3c233a7d","borrower()":"7df1f1b9","businessRegistry()":"3dfc32f6","contribute(uint256)":"c1cbbca7","contributeWithPermit(uint256,uint256,uint8,bytes32,bytes32)":"ce40a308","contributions(address)":"42e94c90","contributors(uint256)":"3cb5d100","disburseLoan()":"188874bd","fundingActive()":"3152dd00","fundingDeadline()":"796b23bb","getAvailableReturns(address)":"5da624ef","getContributorCount()":"253da8bd","getContributors()":"af157c19","getOutstandingAmount()":"23ef70bc","getRemainingFundingTime()":"fe5a30d7","getRepaymentDeadline()":"a3768708","gracePeriod()":"a06db7dc","lastMetadataUpdate()":"91cb7131","loanAmount()":"9d585f7f","loanDisbursed()":"c05757da","loanDisbursedAt()":"673c2417","loanFullyRepaid()":"4cefb131","makeRepayment(uint256)":"d37415fe","metadataURI()":"03ee438c","refund()":"590e1ae3","repaymentDuration()":"8e362394","token()":"fc0c546a","totalFunded()":"ad044f49","totalRepaid()":"a72dad05","updateMetadata(string)":"918b5be1","withdrawAvailableReturns()":"41473d20","withdrawnAmounts(address)":"3f211ef3"},"id":26}